010PREMPACK3903   AP0ADVANCED BOX COM201910011554                                                                                                                                                                                                                                                                                                             
060CHKXINLAND        USD0000050070201910010000000265000INLAND CONTAINER                   INLAND CONTAINER                   234 CONTAINER                      PO BOX 1234                                                           LITTLESTOWN                PA18989     USA00001          CHECK MEMO FIELD                                               
07001                                                                                                                                                                                                                                                                                                                                                         
070082018091712356                                             000000026500000000000000000000000265000                                                                                                                                                                                                                                                        
0700900000002650000000000000000                                                                                                                                                                                                                                                                                                                               
060CHKXSS0001        USD0000050073201910010000012150000SILVERSUN PROMOTIONS               SILVER SUN PROMOTIONS              6002 EQUESTRIAN TERRACE                                                                                  NEWARK                     NJ123456789 US 00030          TEST CHECK MEMO TEXT                                           
07001                                                                                                                                                                                                                                                                                                                                                         
070082019062647607-26                                          000000026000000000000000000000000260000                                                                                                                                                                                                                                                        
070082019062747607-27                                          000000027000000000000000000000000270000                                                                                                                                                                                                                                                        
070082019062847607-28                                          000000028000000000000000000000000280000                                                                                                                                                                                                                                                        
070082019062947607-29                                          000000029000000000000000000000000290000                                                                                                                                                                                                                                                        
070082019063047607-30                                          000000030000000000000000000000000300000                                                                                                                                                                                                                                                        
070082019070147607-31                                          000000031000000000000000000000000310000                                                                                                                                                                                                                                                        
070082019070247607-32                                          000000032000000000000000000000000320000                                                                                                                                                                                                                                                        
070082019070347607-33                                          000000033000000000000000000000000330000                                                                                                                                                                                                                                                        
070082019070447607-34                                          000000034000000000000000000000000340000                                                                                                                                                                                                                                                        
070082019070547607-35                                          000000035000000000000000000000000350000                                                                                                                                                                                                                                                        
070082019070647607-36                                          000000036000000000000000000000000360000                                                                                                                                                                                                                                                        
070082019070747607-37                                          000000037000000000000000000000000370000                                                                                                                                                                                                                                                        
070082019070847607-38                                          000000038000000000000000000000000380000                                                                                                                                                                                                                                                        
070082019070947607-39                                          000000039000000000000000000000000390000                                                                                                                                                                                                                                                        
070082019071047607-40                                          000000040000000000000000000000000400000                                                                                                                                                                                                                                                        
070082019071147607-41                                          000000041000000000000000000000000410000                                                                                                                                                                                                                                                        
070082019071247607-42                                          000000042000000000000000000000000420000                                                                                                                                                                                                                                                        
070082019071347607-43                                          000000043000000000000000000000000430000                                                                                                                                                                                                                                                        
070082019071447607-44                                          000000044000000000000000000000000440000                                                                                                                                                                                                                                                        
070082019071547607-45                                          000000045000000000000000000000000450000                                                                                                                                                                                                                                                        
070082019071647607-46                                          000000046000000000000000000000000460000                                                                                                                                                                                                                                                        
070082019071747607-47                                          000000047000000000000000000000000470000                                                                                                                                                                                                                                                        
070082019071847607-48                                          000000048000000000000000000000000480000                                                                                                                                                                                                                                                        
070082019071947607-49                                          000000049000000000000000000000000490000                                                                                                                                                                                                                                                        
070082019072047607-50                                          000000050000000000000000000000000500000                                                                                                                                                                                                                                                        
070082019072147607-51                                          000000051000000000000000000000000510000                                                                                                                                                                                                                                                        
070082019072247607-52                                          000000052000000000000000000000000520000                                                                                                                                                                                                                                                        
070082019072347607-53                                          000000053000000000000000000000000530000                                                                                                                                                                                                                                                        
070082019072447607-54                                          000000054000000000000000000000000540000                                                                                                                                                                                                                                                        
070082019072547607-55                                          000000055000000000000000000000000550000                                                                                                                                                                                                                                                        
0700900000121500000000000000000                                                                                                                                                                                                                                                                                                                               
060ACH               USD000005007420191001   0057245000ULINE CORP                         ULINE                              A/P DEPARTMENT                     ADDRESS LINE 2                                                        PHILADELPHIA               PA18990        00001          0                            22CTXCHECK MEMO                   
07001ULINE                                                                                                                                                                                                                                                                                                                                                    
0700620130115011513                                            000005724500000000000000000000057245000                                                                                                                                                                                                                                                        
0700900000000000000000000000000                                                                                                                                                                                                                                                                                                                               
090000001241500000000020000057245000000000100000000000000000000000000000000000000000000069660000000003200000696600000000043                                                                                                                                                                                                                                   