010PREMPACK3903   AP0ADVANCED BOX COM201910221113                                                                                                                                                                                                                                                                                                             
060CHKXABC010    UM  USD0000050079201910220000058732698ABC  COMPANY                       ABC  COMPANY                       12345 AVENUE A                                                                                           NEWARK                     NJ123456789 USA00002                                                                         
07001                                                                                                                                                                                                                                                                                                                                                         
070062018041904192018                                          000005830000000000000010000000058299000                                                                                                                                                                                                                                                        
0700620170621CH-10001                                          000000043369800000000000000000000433698                                                                                                                                                                                                                                                        
0700900000587336980000000001000                                                                                                                                                                                                                                                                                                                               
060ACH               USD000005008020191022   0000004500PABLO'S PAPER AND BOAR             PPB001                             8238 WILDERNESS CROSSING                                                                                 FERGUS FALLS               MN56537        00004          0                            22CTX                             
07001PPB001                                                                                                                                                                                                                                                                                                                                                   
0700620190709111                                               000000022600000000000000000000000226000                                                                                                                                                                                                                                                        
0700620190709112                                               000000010000000000000000000000000100000                                                                                                                                                                                                                                                        
0700620190709113                                               -000000230000-000000015000-000000215000                                                                                                                                                                                                                                                        
0700620190709CM111                                             -0000001065000000000000000-000000106500                                                                                                                                                                                                                                                        
0700900000000000000000000000000                                                                                                                                                                                                                                                                                                                               
060CHKXSS0001    UM  USD0000050081201910220000000450045SILVERSUN PROMOTIONS               SILVER SUN PROMOTIONS              6002 EQUESTRIAN TERRACE                                                                                  NEWARK                     NJ123456789 US 00009          TEST CHECK MEMO TEXT                                           
07001                                                                                                                                                                                                                                                                                                                                                         
070062019090154492-1                                           000000001000100000000000000000000010001                                                                                                                                                                                                                                                        
070062019090254492-2                                           000000002000200000000000000000000020002                                                                                                                                                                                                                                                        
070062019090354492-3                                           000000003000300000000000000000000030003                                                                                                                                                                                                                                                        
070062019090454492-4                                           000000004000400000000000000000000040004                                                                                                                                                                                                                                                        
070062019090554492-5                                           000000005000500000000000000000000050005                                                                                                                                                                                                                                                        
070062019090654492-6                                           000000006000600000000000000000000060006                                                                                                                                                                                                                                                        
070062019090754492-7                                           000000007000700000000000000000000070007                                                                                                                                                                                                                                                        
070062019090854492-8                                           000000008000800000000000000000000080008                                                                                                                                                                                                                                                        
070062019090954492-9                                           000000009000900000000000000000000090009                                                                                                                                                                                                                                                        
0700900000004500450000000000000                                                                                                                                                                                                                                                                                                                               
090000005918274300000020000000004500000000100000000000000000000000000000000000000000000059187243000001500000591872430000026                                                                                                                                                                                                                                   