010PREMPACK3903   AP0ADVANCED BOX COM201909301347                                                                                                                                                                                                                                                                                                             
060CHKXSS0001        USD0000050069201909300000000900000SILVERSUN PROMOTIONS               SILVER SUN PROMOTIONS              6002 EQUESTRIAN TERRACE                                                                                  NEWARK                     NJ123456789 US 00003          TEST CHECK MEMO TEXT                                           
07001                                                                                                                                                                                                                                                                                                                                                         
070082019062947607-29                                          000000029000000000000000000000000290000                                                                                                                                                                                                                                                        
070082019063047607-30                                          000000030000000000000000000000000300000                                                                                                                                                                                                                                                        
070082019070147607-31                                          000000031000000000000000000000000310000                                                                                                                                                                                                                                                        
0700900000009000000000000000000                                                                                                                                                                                                                                                                                                                               
090000000090000000000010000000000000000000000000000000000000000000000000000000000000000000900000000000300000009000000000008                                                                                                                                                                                                                                   