010PREMPACK3903   AP0ADVANCED BOX COM201910110626                                                                                                                                                                                                                                                                                                             
060CHKXINLAND    UM  USD0000050075201910110000000042400INLAND CONTAINER                   INLAND CONTAINER                   234 CONTAINER                      PO BOX 1234                                                           LITTLESTOWN                PA18989     USA00001          CHECK MEMO FIELD                                               
07001                                                                                                                                                                                                                                                                                                                                                         
0700620180914963                                               000000004240000000000000000000000042400                                                                                                                                                                                                                                                        
0700900000000424000000000000000                                                                                                                                                                                                                                                                                                                               
090000000004240000000010000000000000000000000000000000000000000000000000000000000000000000042400000000100000000424000000006                                                                                                                                                                                                                                   