010PREMPACK3903   AP0ADVANCED BOX COM201911021443                                                                                                                                                                                                                                                                                                             
060CHKXBARPLA1   UM  USD0000050082201911020000063621200BAR PLATE ,CORPORATION             BAR PLATE CORPORATION              PO BOX 3540                                                                                              WOODBRIDGE                 CT065250113    00003          1234                                                           
07001                                                                                                                                                                                                                                                                                                                                                         
0700620170621CH-1002                                           000006364240000000000000000000063642400                                                                                                                                                                                                                                                        
0700620130219NEG123                                            -0000000106000000000000000-000000010600                                                                                                                                                                                                                                                        
0700620130220NEGDISC                                           -0000000106000000000000000-000000010600                                                                                                                                                                                                                                                        
0700900000636212000000000000000                                                                                                                                                                                                                                                                                                                               
060CHKXBLANKET   UM  USD0000050083201911020000000400000BLANKET ORDER VENDOR               BLANKET ORDER VENDOR               32342 COVER WAY                                                                                          SEGAR                      MI55555     USA00001                                                                         
07001                                                                                                                                                                                                                                                                                                                                                         
07006201901258328                                              000000040000000000000000000000000400000                                                                                                                                                                                                                                                        
0700900000004000000000000000000                                                                                                                                                                                                                                                                                                                               
060ACH               USD000005008420191102   0000125000CDW DIRECT                         CDWDIR                             200 N. MILWAUKEE AVE.                                                                                    VERNON HILLS               IL60061        00001          000000000                    22CTX                             
07001CDWDIR                                                                                                                                                                                                                                                                                                                                                   
070062019011783282                                             000000012500000000000000000000000125000                                                                                                                                                                                                                                                        
0700900000000000000000000000000                                                                                                                                                                                                                                                                                                                               
060ACH               USD000005008520191102   0000500000DELETE PAPERBOARD                  DELETE                             PO BOX 1234                                                                                              PHILA                      PA19047        00001          000000000                    22CTXCHECKMEMO12345678901         
07001DELETE                                                                                                                                                                                                                                                                                                                                                   
0700620190321032119                                            000000050000000000000000000000000500000                                                                                                                                                                                                                                                        
0700900000000000000000000000000                                                                                                                                                                                                                                                                                                                               
060CHKXINLAND    UM  USD0000050086201911020000010844417INLAND CONTAINER                   INLAND CONTAINER                   234 CONTAINER                      PO BOX 1234                                                           LITTLESTOWN                PA18989     USA00004          CHECK MEMO FIELD                                               
07001                                                                                                                                                                                                                                                                                                                                                         
070062018092433473-1                                           000000016041700000000000000000000160417                                                                                                                                                                                                                                                        
0700620131002416                                               000000004160000000000000000000000041600                                                                                                                                                                                                                                                        
070062018091445689                                             000001060000000000000000000000010600000                                                                                                                                                                                                                                                        
0700620180914963                                               000000004240000000000000000000000042400                                                                                                                                                                                                                                                        
0700900000108444170000000000000                                                                                                                                                                                                                                                                                                                               
060CHKXINNPAC    UM  USD0000050087201911020000001123852INNOVATIVE PACKAGING               INLAND CONTAINER                   234 CONTAINER                                                                                            LITTLESTOWN                PA18989     USA00002                                                                         
07001                                                                                                                                                                                                                                                                                                                                                         
070062019050247817-1                                           000000022477000000000000000000000224770                                                                                                                                                                                                                                                        
070062019050247817-2                                           000000089908200000000000000000000899082                                                                                                                                                                                                                                                        
0700900000011238520000000000000                                                                                                                                                                                                                                                                                                                               
060CHKXJUL020    UM  USD0000050088201911020000000100000JULIOUS ORANGE JUICE               JULIOUS ORANGE JUICE                                                                                                                                                     000000000    00001                                                                         
07001                                                                                                                                                                                                                                                                                                                                                         
07006201809259876                                              000000010000000000000000000000000100000                                                                                                                                                                                                                                                        
0700900000001000000000000000000                                                                                                                                                                                                                                                                                                                               
060CHKXMISC001   UM  USD0000050089201911020000000030000ABC BOX                                                                                                                                                                                                      00000000    00002                                                                         
07001                                                                                                                                                                                                                                                                                                                                                         
07006201903281234                                              000000001000000000000000000000000010000                                                                                                                                                                                                                                                        
070062019032812345                                             000000002000000000000000000000000020000                                                                                                                                                                                                                                                        
0700900000000300000000000000000                                                                                                                                                                                                                                                                                                                               
060CHKXNEWCORR   UM  USD0000050090201911020000000176276NEW CORR                           LA CORR                            LAFLAMME LANE                                                                                            SOMEWHERE                  MA          USA00001                                                                         
07001                                                                                                                                                                                                                                                                                                                                                         
07006201906106102019                                           000000017627600000000000000000000176276                                                                                                                                                                                                                                                        
0700900000001762760000000000000                                                                                                                                                                                                                                                                                                                               
060CHKXSS0001    UM  USD0000050092201911020000002100210DDD                                SILVER SUN PROMOTIONS              6002 EQUESTRIAN TERRACE                                                                                  NEWARK                     NJ123456789 US 00020          TEST CHECK MEMO TEXT                                           
07001                                                                                                                                                                                                                                                                                                                                                         
070062019090154492-1                                           000000001000100000000000000000000010001                                                                                                                                                                                                                                                        
070062019091054492-10                                          000000010001000000000000000000000100010                                                                                                                                                                                                                                                        
070062019091154492-11                                          000000011001100000000000000000000110011                                                                                                                                                                                                                                                        
070062019091254492-12                                          000000012001200000000000000000000120012                                                                                                                                                                                                                                                        
070062019091354492-13                                          000000013001300000000000000000000130013                                                                                                                                                                                                                                                        
070062019091454492-14                                          000000014001400000000000000000000140014                                                                                                                                                                                                                                                        
070062019091554492-15                                          000000015001500000000000000000000150015                                                                                                                                                                                                                                                        
070062019091654492-16                                          000000016001600000000000000000000160016                                                                                                                                                                                                                                                        
070062019091754492-17                                          000000017001700000000000000000000170017                                                                                                                                                                                                                                                        
070062019091854492-18                                          000000018001800000000000000000000180018                                                                                                                                                                                                                                                        
070062019091954492-19                                          000000019001900000000000000000000190019                                                                                                                                                                                                                                                        
070062019090254492-2                                           000000002000200000000000000000000020002                                                                                                                                                                                                                                                        
070062019092054492-20                                          000000020002000000000000000000000200020                                                                                                                                                                                                                                                        
070062019090354492-3                                           000000003000300000000000000000000030003                                                                                                                                                                                                                                                        
070062019090454492-4                                           000000004000400000000000000000000040004                                                                                                                                                                                                                                                        
070062019090554492-5                                           000000005000500000000000000000000050005                                                                                                                                                                                                                                                        
070062019090654492-6                                           000000006000600000000000000000000060006                                                                                                                                                                                                                                                        
070062019090754492-7                                           000000007000700000000000000000000070007                                                                                                                                                                                                                                                        
070062019090854492-8                                           000000008000800000000000000000000080008                                                                                                                                                                                                                                                        
070062019090954492-9                                           000000009000900000000000000000000090009                                                                                                                                                                                                                                                        
0700900000021002100000000000000                                                                                                                                                                                                                                                                                                                               
060CHKXSTONE     UM  USD0000050093201911020000000097952AASTONE CONTAINER CORP (A TEMPLE INSTONE CONTAINER CORP.                                                                                                                       VALLEY FORGE               PA12653     USA00001          CHECK MEMO                                                     
07001                                                                                                                                                                                                                                                                                                                                                         
0700620191030TEST 1                                            000000009795200000000000000000000097952                                                                                                                                                                                                                                                        
0700900000000979520000000000000                                                                                                                                                                                                                                                                                                                               
090000007849390700000090000000625000000000200000000000000000000000000000000000000000000079118907000003700000791189070000072                                                                                                                                                                                                                                   